{
  "_format": "hh-sol-artifact-1",
  "contractName": "TokenFaucet",
  "sourceName": "contracts/TokenFaucet.sol",
  "abi": [
    {
      "anonymous": false,
      "inputs": [
        {
          "indexed": false,
          "internalType": "uint256",
          "name": "newPeriod",
          "type": "uint256"
        }
      ],
      "name": "CooldownPeriodUpdated",
      "type": "event"
    },
    {
      "anonymous": false,
      "inputs": [
        {
          "indexed": false,
          "internalType": "uint256",
          "name": "newAmount",
          "type": "uint256"
        }
      ],
      "name": "DripAmountUpdated",
      "type": "event"
    },
    {
      "anonymous": false,
      "inputs": [
        {
          "indexed": true,
          "internalType": "address",
          "name": "previousOwner",
          "type": "address"
        },
        {
          "indexed": true,
          "internalType": "address",
          "name": "newOwner",
          "type": "address"
        }
      ],
      "name": "OwnershipTransferred",
      "type": "event"
    },
    {
      "anonymous": false,
      "inputs": [
        {
          "indexed": true,
          "internalType": "address",
          "name": "token",
          "type": "address"
        },
        {
          "indexed": true,
          "internalType": "address",
          "name": "recipient",
          "type": "address"
        },
        {
          "indexed": false,
          "internalType": "uint256",
          "name": "amount",
          "type": "uint256"
        }
      ],
      "name": "TokensDripped",
      "type": "event"
    },
    {
      "inputs": [],
      "name": "cooldownPeriod",
      "outputs": [
        {
          "internalType": "uint256",
          "name": "",
          "type": "uint256"
        }
      ],
      "stateMutability": "view",
      "type": "function"
    },
    {
      "inputs": [],
      "name": "dripAmount",
      "outputs": [
        {
          "internalType": "uint256",
          "name": "",
          "type": "uint256"
        }
      ],
      "stateMutability": "view",
      "type": "function"
    },
    {
      "inputs": [
        {
          "internalType": "address",
          "name": "",
          "type": "address"
        },
        {
          "internalType": "address",
          "name": "",
          "type": "address"
        }
      ],
      "name": "lastRequestTime",
      "outputs": [
        {
          "internalType": "uint256",
          "name": "",
          "type": "uint256"
        }
      ],
      "stateMutability": "view",
      "type": "function"
    },
    {
      "inputs": [],
      "name": "owner",
      "outputs": [
        {
          "internalType": "address",
          "name": "",
          "type": "address"
        }
      ],
      "stateMutability": "view",
      "type": "function"
    },
    {
      "inputs": [],
      "name": "renounceOwnership",
      "outputs": [],
      "stateMutability": "nonpayable",
      "type": "function"
    },
    {
      "inputs": [
        {
          "internalType": "address",
          "name": "tokenAddress",
          "type": "address"
        }
      ],
      "name": "requestTokens",
      "outputs": [],
      "stateMutability": "nonpayable",
      "type": "function"
    },
    {
      "inputs": [
        {
          "internalType": "uint256",
          "name": "newCooldownPeriod",
          "type": "uint256"
        }
      ],
      "name": "setCooldownPeriod",
      "outputs": [],
      "stateMutability": "nonpayable",
      "type": "function"
    },
    {
      "inputs": [
        {
          "internalType": "uint256",
          "name": "newDripAmount",
          "type": "uint256"
        }
      ],
      "name": "setDripAmount",
      "outputs": [],
      "stateMutability": "nonpayable",
      "type": "function"
    },
    {
      "inputs": [
        {
          "internalType": "address",
          "name": "newOwner",
          "type": "address"
        }
      ],
      "name": "transferOwnership",
      "outputs": [],
      "stateMutability": "nonpayable",
      "type": "function"
    },
    {
      "inputs": [
        {
          "internalType": "address",
          "name": "tokenAddress",
          "type": "address"
        },
        {
          "internalType": "uint256",
          "name": "amount",
          "type": "uint256"
        }
      ],
      "name": "withdrawTokens",
      "outputs": [],
      "stateMutability": "nonpayable",
      "type": "function"
    }
  ],
  "bytecode": "0x6080604052678ac7230489e800006002556201518060035534801561002357600080fd5b5061002d33610036565b60018055610086565b600080546001600160a01b038381166001600160a01b0319831681178455604051919092169283917f8be0079c531659141344cd1fd0a4f28419497f9722a3daafe3b4186f6b6457e09190a35050565b610d37806100956000396000f3fe608060405234801561001057600080fd5b50600436106100be5760003560e01c8063715018a6116100765780638da5cb5b1161005b5780638da5cb5b14610141578063f2fde38b14610167578063f73eb2e01461017a57600080fd5b8063715018a61461012657806380ea3de11461012e57600080fd5b806335a1529b116100a757806335a1529b146100f7578063543f8c5814610100578063580f39041461011357600080fd5b806304646a49146100c357806306b091f9146100e2575b600080fd5b6100cc60035481565b6040516100d991906107ec565b60405180910390f35b6100f56100f036600461084e565b6101a5565b005b6100cc60025481565b6100f561010e36600461088b565b61037b565b6100f56101213660046108b4565b6103e3565b6100f561067a565b6100f561013c36600461088b565b61068e565b60005473ffffffffffffffffffffffffffffffffffffffff166040516100d991906108de565b6100f56101753660046108b4565b6106cb565b6100cc6101883660046108ec565b600460209081526000928352604080842090915290825290205481565b6101ad61070f565b73ffffffffffffffffffffffffffffffffffffffff82166101e95760405162461bcd60e51b81526004016101e090610956565b60405180910390fd5b600081116102095760405162461bcd60e51b81526004016101e09061099a565b6040517f70a082310000000000000000000000000000000000000000000000000000000081528290829073ffffffffffffffffffffffffffffffffffffffff8316906370a082319061025f9030906004016108de565b602060405180830381865afa15801561027c573d6000803e3d6000fd5b505050506040513d601f19601f820116820180604052508101906102a091906109b5565b10156102be5760405162461bcd60e51b81526004016101e090610a0a565b8073ffffffffffffffffffffffffffffffffffffffff1663a9059cbb6102f960005473ffffffffffffffffffffffffffffffffffffffff1690565b846040518363ffffffff1660e01b8152600401610317929190610a1a565b6020604051808303816000875af1158015610336573d6000803e3d6000fd5b505050506040513d601f19601f8201168201806040525081019061035a9190610a4f565b6103765760405162461bcd60e51b81526004016101e090610aa4565b505050565b61038361070f565b600081116103a35760405162461bcd60e51b81526004016101e090610b11565b60028190556040517f33f3faee0788ab897d8f674abe1dde6d93ba901e4a1502161294734ba178e3c7906103d89083906107ec565b60405180910390a150565b6103eb610746565b73ffffffffffffffffffffffffffffffffffffffff811661041e5760405162461bcd60e51b81526004016101e090610956565b6002546040517f70a0823100000000000000000000000000000000000000000000000000000000815282919073ffffffffffffffffffffffffffffffffffffffff8316906370a08231906104769030906004016108de565b602060405180830381865afa158015610493573d6000803e3d6000fd5b505050506040513d601f19601f820116820180604052508101906104b791906109b5565b10156104d55760405162461bcd60e51b81526004016101e090610b55565b60035433600090815260046020908152604080832073ffffffffffffffffffffffffffffffffffffffff871684529091529020546105139190610b94565b4210156105325760405162461bcd60e51b81526004016101e090610c01565b33600081815260046020818152604080842073ffffffffffffffffffffffffffffffffffffffff888116865292529283902042905560025492517fa9059cbb0000000000000000000000000000000000000000000000000000000081529085169363a9059cbb936105a7939192909101610a1a565b6020604051808303816000875af11580156105c6573d6000803e3d6000fd5b505050506040513d601f19601f820116820180604052508101906105ea9190610a4f565b6106065760405162461bcd60e51b81526004016101e090610aa4565b3373ffffffffffffffffffffffffffffffffffffffff168273ffffffffffffffffffffffffffffffffffffffff167fd60eaf72f2254c41a9480655c261e7857fb1adf8d4ed7eae34728d95b1275eaa60025460405161066591906107ec565b60405180910390a35061067760018055565b50565b61068261070f565b61068c600061076f565b565b61069661070f565b60038190556040517f3b897fd6944545fcb6a5d5b058781d763169157f8559ca1a7f3276b981d09971906103d89083906107ec565b6106d361070f565b73ffffffffffffffffffffffffffffffffffffffff81166107065760405162461bcd60e51b81526004016101e090610c6b565b6106778161076f565b60005473ffffffffffffffffffffffffffffffffffffffff16331461068c5760405162461bcd60e51b81526004016101e090610cad565b6002600154036107685760405162461bcd60e51b81526004016101e090610cf1565b6002600155565b6000805473ffffffffffffffffffffffffffffffffffffffff8381167fffffffffffffffffffffffff0000000000000000000000000000000000000000831681178455604051919092169283917f8be0079c531659141344cd1fd0a4f28419497f9722a3daafe3b4186f6b6457e09190a35050565b805b82525050565b602081016107fa82846107e4565b92915050565b600073ffffffffffffffffffffffffffffffffffffffff82166107fa565b61082781610800565b811461067757600080fd5b80356107fa8161081e565b80610827565b80356107fa8161083d565b6000806040838503121561086457610864600080fd5b60006108708585610832565b925050602061088185828601610843565b9150509250929050565b6000602082840312156108a0576108a0600080fd5b60006108ac8484610843565b949350505050565b6000602082840312156108c9576108c9600080fd5b60006108ac8484610832565b6107e681610800565b602081016107fa82846108d5565b6000806040838503121561090257610902600080fd5b600061090e8585610832565b925050602061088185828601610832565b601581526000602082017f496e76616c696420746f6b656e20616464726573730000000000000000000000815291505b5060200190565b602080825281016107fa8161091f565b601d81526000602082017f416d6f756e74206d7573742062652067726561746572207468616e20300000008152915061094f565b602080825281016107fa81610966565b80516107fa8161083d565b6000602082840312156109ca576109ca600080fd5b60006108ac84846109aa565b601481526000602082017f496e73756666696369656e742062616c616e63650000000000000000000000008152915061094f565b602080825281016107fa816109d6565b60408101610a2882856108d5565b610a3560208301846107e4565b9392505050565b801515610827565b80516107fa81610a3c565b600060208284031215610a6457610a64600080fd5b60006108ac8484610a44565b601581526000602082017f546f6b656e207472616e73666572206661696c656400000000000000000000008152915061094f565b602080825281016107fa81610a70565b602281526000602082017f4472697020616d6f756e74206d7573742062652067726561746572207468616e81527f2030000000000000000000000000000000000000000000000000000000000000602082015291505b5060400190565b602080825281016107fa81610ab4565b600f81526000602082017f46617563657420697320656d70747900000000000000000000000000000000008152915061094f565b602080825281016107fa81610b21565b7f4e487b7100000000000000000000000000000000000000000000000000000000600052601160045260246000fd5b808201808211156107fa576107fa610b65565b602a81526000602082017f506c65617365207761697420666f722074686520636f6f6c646f776e2070657281527f696f6420746f20656e640000000000000000000000000000000000000000000060208201529150610b0a565b602080825281016107fa81610ba7565b602681526000602082017f4f776e61626c653a206e6577206f776e657220697320746865207a65726f206181527f646472657373000000000000000000000000000000000000000000000000000060208201529150610b0a565b602080825281016107fa81610c11565b60208082527f4f776e61626c653a2063616c6c6572206973206e6f7420746865206f776e65729101908152600061094f565b602080825281016107fa81610c7b565b601f81526000602082017f5265656e7472616e637947756172643a207265656e7472616e742063616c6c008152915061094f565b602080825281016107fa81610cbd56fea26469706673582212200a6147fa1b7aa347e89c8a49ed44d4457e498110e7ecfb148e4161dd3d1b55d164736f6c63430008120033",
  "linkReferences": {},
  "deployedLinkReferences": {}
}