{"contracts/TokenFaucet.sol":{"TokenFaucet":{"abi":[{"anonymous":false,"inputs":[{"indexed":false,"internalType":"uint256","name":"newPeriod","type":"uint256"}],"name":"CooldownPeriodUpdated","type":"event"},{"anonymous":false,"inputs":[{"indexed":false,"internalType":"uint256","name":"newAmount","type":"uint256"}],"name":"DripAmountUpdated","type":"event"},{"anonymous":false,"inputs":[{"indexed":true,"internalType":"address","name":"previousOwner","type":"address"},{"indexed":true,"internalType":"address","name":"newOwner","type":"address"}],"name":"OwnershipTransferred","type":"event"},{"anonymous":false,"inputs":[{"indexed":true,"internalType":"address","name":"token","type":"address"},{"indexed":true,"internalType":"address","name":"recipient","type":"address"},{"indexed":false,"internalType":"uint256","name":"amount","type":"uint256"}],"name":"TokensDripped","type":"event"},{"inputs":[],"name":"cooldownPeriod","outputs":[{"internalType":"uint256","name":"","type":"uint256"}],"stateMutability":"view","type":"function"},{"inputs":[],"name":"dripAmount","outputs":[{"internalType":"uint256","name":"","type":"uint256"}],"stateMutability":"view","type":"function"},{"inputs":[{"internalType":"address","name":"","type":"address"},{"internalType":"address","name":"","type":"address"}],"name":"lastRequestTime","outputs":[{"internalType":"uint256","name":"","type":"uint256"}],"stateMutability":"view","type":"function"},{"inputs":[],"name":"owner","outputs":[{"internalType":"address","name":"","type":"address"}],"stateMutability":"view","type":"function"},{"inputs":[],"name":"renounceOwnership","outputs":[],"stateMutability":"nonpayable","type":"function"},{"inputs":[{"internalType":"address","name":"tokenAddress","type":"address"}],"name":"requestTokens","outputs":[],"stateMutability":"nonpayable","type":"function"},{"inputs":[{"internalType":"uint256","name":"newCooldownPeriod","type":"uint256"}],"name":"setCooldownPeriod","outputs":[],"stateMutability":"nonpayable","type":"function"},{"inputs":[{"internalType":"uint256","name":"newDripAmount","type":"uint256"}],"name":"setDripAmount","outputs":[],"stateMutability":"nonpayable","type":"function"},{"inputs":[{"internalType":"address","name":"newOwner","type":"address"}],"name":"transferOwnership","outputs":[],"stateMutability":"nonpayable","type":"function"},{"inputs":[{"internalType":"address","name":"tokenAddress","type":"address"},{"internalType":"uint256","name":"amount","type":"uint256"}],"name":"withdrawTokens","outputs":[],"stateMutability":"nonpayable","type":"function"}],"evm":{"bytecode":{"linkReferences":{},"object":"6080604052678ac7230489e800006002556201518060035534801561002357600080fd5b5061002d33610036565b60018055610086565b600080546001600160a01b038381166001600160a01b0319831681178455604051919092169283917f8be0079c531659141344cd1fd0a4f28419497f9722a3daafe3b4186f6b6457e09190a35050565b610d37806100956000396000f3fe608060405234801561001057600080fd5b50600436106100be5760003560e01c8063715018a6116100765780638da5cb5b1161005b5780638da5cb5b14610141578063f2fde38b14610167578063f73eb2e01461017a57600080fd5b8063715018a61461012657806380ea3de11461012e57600080fd5b806335a1529b116100a757806335a1529b146100f7578063543f8c5814610100578063580f39041461011357600080fd5b806304646a49146100c357806306b091f9146100e2575b600080fd5b6100cc60035481565b6040516100d991906107ec565b60405180910390f35b6100f56100f036600461084e565b6101a5565b005b6100cc60025481565b6100f561010e36600461088b565b61037b565b6100f56101213660046108b4565b6103e3565b6100f561067a565b6100f561013c36600461088b565b61068e565b60005473ffffffffffffffffffffffffffffffffffffffff166040516100d991906108de565b6100f56101753660046108b4565b6106cb565b6100cc6101883660046108ec565b600460209081526000928352604080842090915290825290205481565b6101ad61070f565b73ffffffffffffffffffffffffffffffffffffffff82166101e95760405162461bcd60e51b81526004016101e090610956565b60405180910390fd5b600081116102095760405162461bcd60e51b81526004016101e09061099a565b6040517f70a082310000000000000000000000000000000000000000000000000000000081528290829073ffffffffffffffffffffffffffffffffffffffff8316906370a082319061025f9030906004016108de565b602060405180830381865afa15801561027c573d6000803e3d6000fd5b505050506040513d601f19601f820116820180604052508101906102a091906109b5565b10156102be5760405162461bcd60e51b81526004016101e090610a0a565b8073ffffffffffffffffffffffffffffffffffffffff1663a9059cbb6102f960005473ffffffffffffffffffffffffffffffffffffffff1690565b846040518363ffffffff1660e01b8152600401610317929190610a1a565b6020604051808303816000875af1158015610336573d6000803e3d6000fd5b505050506040513d601f19601f8201168201806040525081019061035a9190610a4f565b6103765760405162461bcd60e51b81526004016101e090610aa4565b505050565b61038361070f565b600081116103a35760405162461bcd60e51b81526004016101e090610b11565b60028190556040517f33f3faee0788ab897d8f674abe1dde6d93ba901e4a1502161294734ba178e3c7906103d89083906107ec565b60405180910390a150565b6103eb610746565b73ffffffffffffffffffffffffffffffffffffffff811661041e5760405162461bcd60e51b81526004016101e090610956565b6002546040517f70a0823100000000000000000000000000000000000000000000000000000000815282919073ffffffffffffffffffffffffffffffffffffffff8316906370a08231906104769030906004016108de565b602060405180830381865afa158015610493573d6000803e3d6000fd5b505050506040513d601f19601f820116820180604052508101906104b791906109b5565b10156104d55760405162461bcd60e51b81526004016101e090610b55565b60035433600090815260046020908152604080832073ffffffffffffffffffffffffffffffffffffffff871684529091529020546105139190610b94565b4210156105325760405162461bcd60e51b81526004016101e090610c01565b33600081815260046020818152604080842073ffffffffffffffffffffffffffffffffffffffff888116865292529283902042905560025492517fa9059cbb0000000000000000000000000000000000000000000000000000000081529085169363a9059cbb936105a7939192909101610a1a565b6020604051808303816000875af11580156105c6573d6000803e3d6000fd5b505050506040513d601f19601f820116820180604052508101906105ea9190610a4f565b6106065760405162461bcd60e51b81526004016101e090610aa4565b3373ffffffffffffffffffffffffffffffffffffffff168273ffffffffffffffffffffffffffffffffffffffff167fd60eaf72f2254c41a9480655c261e7857fb1adf8d4ed7eae34728d95b1275eaa60025460405161066591906107ec565b60405180910390a35061067760018055565b50565b61068261070f565b61068c600061076f565b565b61069661070f565b60038190556040517f3b897fd6944545fcb6a5d5b058781d763169157f8559ca1a7f3276b981d09971906103d89083906107ec565b6106d361070f565b73ffffffffffffffffffffffffffffffffffffffff81166107065760405162461bcd60e51b81526004016101e090610c6b565b6106778161076f565b60005473ffffffffffffffffffffffffffffffffffffffff16331461068c5760405162461bcd60e51b81526004016101e090610cad565b6002600154036107685760405162461bcd60e51b81526004016101e090610cf1565b6002600155565b6000805473ffffffffffffffffffffffffffffffffffffffff8381167fffffffffffffffffffffffff0000000000000000000000000000000000000000831681178455604051919092169283917f8be0079c531659141344cd1fd0a4f28419497f9722a3daafe3b4186f6b6457e09190a35050565b805b82525050565b602081016107fa82846107e4565b92915050565b600073ffffffffffffffffffffffffffffffffffffffff82166107fa565b61082781610800565b811461067757600080fd5b80356107fa8161081e565b80610827565b80356107fa8161083d565b6000806040838503121561086457610864600080fd5b60006108708585610832565b925050602061088185828601610843565b9150509250929050565b6000602082840312156108a0576108a0600080fd5b60006108ac8484610843565b949350505050565b6000602082840312156108c9576108c9600080fd5b60006108ac8484610832565b6107e681610800565b602081016107fa82846108d5565b6000806040838503121561090257610902600080fd5b600061090e8585610832565b925050602061088185828601610832565b601581526000602082017f496e76616c696420746f6b656e20616464726573730000000000000000000000815291505b5060200190565b602080825281016107fa8161091f565b601d81526000602082017f416d6f756e74206d7573742062652067726561746572207468616e20300000008152915061094f565b602080825281016107fa81610966565b80516107fa8161083d565b6000602082840312156109ca576109ca600080fd5b60006108ac84846109aa565b601481526000602082017f496e73756666696369656e742062616c616e63650000000000000000000000008152915061094f565b602080825281016107fa816109d6565b60408101610a2882856108d5565b610a3560208301846107e4565b9392505050565b801515610827565b80516107fa81610a3c565b600060208284031215610a6457610a64600080fd5b60006108ac8484610a44565b601581526000602082017f546f6b656e207472616e73666572206661696c656400000000000000000000008152915061094f565b602080825281016107fa81610a70565b602281526000602082017f4472697020616d6f756e74206d7573742062652067726561746572207468616e81527f2030000000000000000000000000000000000000000000000000000000000000602082015291505b5060400190565b602080825281016107fa81610ab4565b600f81526000602082017f46617563657420697320656d70747900000000000000000000000000000000008152915061094f565b602080825281016107fa81610b21565b7f4e487b7100000000000000000000000000000000000000000000000000000000600052601160045260246000fd5b808201808211156107fa576107fa610b65565b602a81526000602082017f506c65617365207761697420666f722074686520636f6f6c646f776e2070657281527f696f6420746f20656e640000000000000000000000000000000000000000000060208201529150610b0a565b602080825281016107fa81610ba7565b602681526000602082017f4f776e61626c653a206e6577206f776e657220697320746865207a65726f206181527f646472657373000000000000000000000000000000000000000000000000000060208201529150610b0a565b602080825281016107fa81610c11565b60208082527f4f776e61626c653a2063616c6c6572206973206e6f7420746865206f776e65729101908152600061094f565b602080825281016107fa81610c7b565b601f81526000602082017f5265656e7472616e637947756172643a207265656e7472616e742063616c6c008152915061094f565b602080825281016107fa81610cbd56fea26469706673582212200a6147fa1b7aa347e89c8a49ed44d4457e498110e7ecfb148e4161dd3d1b55d164736f6c63430008120033","opcodes":"PUSH1 0x80 PUSH1 0x40 MSTORE PUSH8 0x8AC7230489E80000 PUSH1 0x2 SSTORE PUSH3 0x15180 PUSH1 0x3 SSTORE CALLVALUE DUP1 ISZERO PUSH2 0x23 JUMPI PUSH1 0x0 DUP1 REVERT JUMPDEST POP PUSH2 0x2D CALLER PUSH2 0x36 JUMP JUMPDEST PUSH1 0x1 DUP1 SSTORE PUSH2 0x86 JUMP JUMPDEST PUSH1 0x0 DUP1 SLOAD PUSH1 0x1 PUSH1 0x1 PUSH1 0xA0 SHL SUB DUP4 DUP2 AND PUSH1 0x1 PUSH1 0x1 PUSH1 0xA0 SHL SUB NOT DUP4 AND DUP2 OR DUP5 SSTORE PUSH1 0x40 MLOAD SWAP2 SWAP1 SWAP3 AND SWAP3 DUP4 SWAP2 PUSH32 0x8BE0079C531659141344CD1FD0A4F28419497F9722A3DAAFE3B4186F6B6457E0 SWAP2 SWAP1 LOG3 POP POP JUMP JUMPDEST PUSH2 0xD37 DUP1 PUSH2 0x95 PUSH1 0x0 CODECOPY PUSH1 0x0 RETURN INVALID PUSH1 0x80 PUSH1 0x40 MSTORE CALLVALUE DUP1 ISZERO PUSH2 0x10 JUMPI PUSH1 0x0 DUP1 REVERT JUMPDEST POP PUSH1 0x4 CALLDATASIZE LT PUSH2 0xBE JUMPI PUSH1 0x0 CALLDATALOAD PUSH1 0xE0 SHR DUP1 PUSH4 0x715018A6 GT PUSH2 0x76 JUMPI DUP1 PUSH4 0x8DA5CB5B GT PUSH2 0x5B JUMPI DUP1 PUSH4 0x8DA5CB5B EQ PUSH2 0x141 JUMPI DUP1 PUSH4 0xF2FDE38B EQ PUSH2 0x167 JUMPI DUP1 PUSH4 0xF73EB2E0 EQ PUSH2 0x17A JUMPI PUSH1 0x0 DUP1 REVERT JUMPDEST DUP1 PUSH4 0x715018A6 EQ PUSH2 0x126 JUMPI DUP1 PUSH4 0x80EA3DE1 EQ PUSH2 0x12E JUMPI PUSH1 0x0 DUP1 REVERT JUMPDEST DUP1 PUSH4 0x35A1529B GT PUSH2 0xA7 JUMPI DUP1 PUSH4 0x35A1529B EQ PUSH2 0xF7 JUMPI DUP1 PUSH4 0x543F8C58 EQ PUSH2 0x100 JUMPI DUP1 PUSH4 0x580F3904 EQ PUSH2 0x113 JUMPI PUSH1 0x0 DUP1 REVERT JUMPDEST DUP1 PUSH4 0x4646A49 EQ PUSH2 0xC3 JUMPI DUP1 PUSH4 0x6B091F9 EQ PUSH2 0xE2 JUMPI JUMPDEST PUSH1 0x0 DUP1 REVERT JUMPDEST PUSH2 0xCC PUSH1 0x3 SLOAD DUP2 JUMP JUMPDEST PUSH1 0x40 MLOAD PUSH2 0xD9 SWAP2 SWAP1 PUSH2 0x7EC JUMP JUMPDEST PUSH1 0x40 MLOAD DUP1 SWAP2 SUB SWAP1 RETURN JUMPDEST PUSH2 0xF5 PUSH2 0xF0 CALLDATASIZE PUSH1 0x4 PUSH2 0x84E JUMP JUMPDEST PUSH2 0x1A5 JUMP JUMPDEST STOP JUMPDEST PUSH2 0xCC PUSH1 0x2 SLOAD DUP2 JUMP JUMPDEST PUSH2 0xF5 PUSH2 0x10E CALLDATASIZE PUSH1 0x4 PUSH2 0x88B JUMP JUMPDEST PUSH2 0x37B JUMP JUMPDEST PUSH2 0xF5 PUSH2 0x121 CALLDATASIZE PUSH1 0x4 PUSH2 0x8B4 JUMP JUMPDEST PUSH2 0x3E3 JUMP JUMPDEST PUSH2 0xF5 PUSH2 0x67A JUMP JUMPDEST PUSH2 0xF5 PUSH2 0x13C CALLDATASIZE PUSH1 0x4 PUSH2 0x88B JUMP JUMPDEST PUSH2 0x68E JUMP JUMPDEST PUSH1 0x0 SLOAD PUSH20 0xFFFFFFFFFFFFFFFFFFFFFFFFFFFFFFFFFFFFFFFF AND PUSH1 0x40 MLOAD PUSH2 0xD9 SWAP2 SWAP1 PUSH2 0x8DE JUMP JUMPDEST PUSH2 0xF5 PUSH2 0x175 CALLDATASIZE PUSH1 0x4 PUSH2 0x8B4 JUMP JUMPDEST PUSH2 0x6CB JUMP JUMPDEST PUSH2 0xCC PUSH2 0x188 CALLDATASIZE PUSH1 0x4 PUSH2 0x8EC JUMP JUMPDEST PUSH1 0x4 PUSH1 0x20 SWAP1 DUP2 MSTORE PUSH1 0x0 SWAP3 DUP4 MSTORE PUSH1 0x40 DUP1 DUP5 KECCAK256 SWAP1 SWAP2 MSTORE SWAP1 DUP3 MSTORE SWAP1 KECCAK256 SLOAD DUP2 JUMP JUMPDEST PUSH2 0x1AD PUSH2 0x70F JUMP JUMPDEST PUSH20 0xFFFFFFFFFFFFFFFFFFFFFFFFFFFFFFFFFFFFFFFF DUP3 AND PUSH2 0x1E9 JUMPI PUSH1 0x40 MLOAD PUSH3 0x461BCD PUSH1 0xE5 SHL DUP2 MSTORE PUSH1 0x4 ADD PUSH2 0x1E0 SWAP1 PUSH2 0x956 JUMP JUMPDEST PUSH1 0x40 MLOAD DUP1 SWAP2 SUB SWAP1 REVERT JUMPDEST PUSH1 0x0 DUP2 GT PUSH2 0x209 JUMPI PUSH1 0x40 MLOAD PUSH3 0x461BCD PUSH1 0xE5 SHL DUP2 MSTORE PUSH1 0x4 ADD PUSH2 0x1E0 SWAP1 PUSH2 0x99A JUMP JUMPDEST PUSH1 0x40 MLOAD PUSH32 0x70A0823100000000000000000000000000000000000000000000000000000000 DUP2 MSTORE DUP3 SWAP1 DUP3 SWAP1 PUSH20 0xFFFFFFFFFFFFFFFFFFFFFFFFFFFFFFFFFFFFFFFF DUP4 AND SWAP1 PUSH4 0x70A08231 SWAP1 PUSH2 0x25F SWAP1 ADDRESS SWAP1 PUSH1 0x4 ADD PUSH2 0x8DE JUMP JUMPDEST PUSH1 0x20 PUSH1 0x40 MLOAD DUP1 DUP4 SUB DUP2 DUP7 GAS STATICCALL ISZERO DUP1 ISZERO PUSH2 0x27C JUMPI RETURNDATASIZE PUSH1 0x0 DUP1 RETURNDATACOPY RETURNDATASIZE PUSH1 0x0 REVERT JUMPDEST POP POP POP POP PUSH1 0x40 MLOAD RETURNDATASIZE PUSH1 0x1F NOT PUSH1 0x1F DUP3 ADD AND DUP3 ADD DUP1 PUSH1 0x40 MSTORE POP DUP2 ADD SWAP1 PUSH2 0x2A0 SWAP2 SWAP1 PUSH2 0x9B5 JUMP JUMPDEST LT ISZERO PUSH2 0x2BE JUMPI PUSH1 0x40 MLOAD PUSH3 0x461BCD PUSH1 0xE5 SHL DUP2 MSTORE PUSH1 0x4 ADD PUSH2 0x1E0 SWAP1 PUSH2 0xA0A JUMP JUMPDEST DUP1 PUSH20 0xFFFFFFFFFFFFFFFFFFFFFFFFFFFFFFFFFFFFFFFF AND PUSH4 0xA9059CBB PUSH2 0x2F9 PUSH1 0x0 SLOAD PUSH20 0xFFFFFFFFFFFFFFFFFFFFFFFFFFFFFFFFFFFFFFFF AND SWAP1 JUMP JUMPDEST DUP5 PUSH1 0x40 MLOAD DUP4 PUSH4 0xFFFFFFFF AND PUSH1 0xE0 SHL DUP2 MSTORE PUSH1 0x4 ADD PUSH2 0x317 SWAP3 SWAP2 SWAP1 PUSH2 0xA1A JUMP JUMPDEST PUSH1 0x20 PUSH1 0x40 MLOAD DUP1 DUP4 SUB DUP2 PUSH1 0x0 DUP8 GAS CALL ISZERO DUP1 ISZERO PUSH2 0x336 JUMPI RETURNDATASIZE PUSH1 0x0 DUP1 RETURNDATACOPY RETURNDATASIZE PUSH1 0x0 REVERT JUMPDEST POP POP POP POP PUSH1 0x40 MLOAD RETURNDATASIZE PUSH1 0x1F NOT PUSH1 0x1F DUP3 ADD AND DUP3 ADD DUP1 PUSH1 0x40 MSTORE POP DUP2 ADD SWAP1 PUSH2 0x35A SWAP2 SWAP1 PUSH2 0xA4F JUMP JUMPDEST PUSH2 0x376 JUMPI PUSH1 0x40 MLOAD PUSH3 0x461BCD PUSH1 0xE5 SHL DUP2 MSTORE PUSH1 0x4 ADD PUSH2 0x1E0 SWAP1 PUSH2 0xAA4 JUMP JUMPDEST POP POP POP JUMP JUMPDEST PUSH2 0x383 PUSH2 0x70F JUMP JUMPDEST PUSH1 0x0 DUP2 GT PUSH2 0x3A3 JUMPI PUSH1 0x40 MLOAD PUSH3 0x461BCD PUSH1 0xE5 SHL DUP2 MSTORE PUSH1 0x4 ADD PUSH2 0x1E0 SWAP1 PUSH2 0xB11 JUMP JUMPDEST PUSH1 0x2 DUP2 SWAP1 SSTORE PUSH1 0x40 MLOAD PUSH32 0x33F3FAEE0788AB897D8F674ABE1DDE6D93BA901E4A1502161294734BA178E3C7 SWAP1 PUSH2 0x3D8 SWAP1 DUP4 SWAP1 PUSH2 0x7EC JUMP JUMPDEST PUSH1 0x40 MLOAD DUP1 SWAP2 SUB SWAP1 LOG1 POP JUMP JUMPDEST PUSH2 0x3EB PUSH2 0x746 JUMP JUMPDEST PUSH20 0xFFFFFFFFFFFFFFFFFFFFFFFFFFFFFFFFFFFFFFFF DUP2 AND PUSH2 0x41E JUMPI PUSH1 0x40 MLOAD PUSH3 0x461BCD PUSH1 0xE5 SHL DUP2 MSTORE PUSH1 0x4 ADD PUSH2 0x1E0 SWAP1 PUSH2 0x956 JUMP JUMPDEST PUSH1 0x2 SLOAD PUSH1 0x40 MLOAD PUSH32 0x70A0823100000000000000000000000000000000000000000000000000000000 DUP2 MSTORE DUP3 SWAP2 SWAP1 PUSH20 0xFFFFFFFFFFFFFFFFFFFFFFFFFFFFFFFFFFFFFFFF DUP4 AND SWAP1 PUSH4 0x70A08231 SWAP1 PUSH2 0x476 SWAP1 ADDRESS SWAP1 PUSH1 0x4 ADD PUSH2 0x8DE JUMP JUMPDEST PUSH1 0x20 PUSH1 0x40 MLOAD DUP1 DUP4 SUB DUP2 DUP7 GAS STATICCALL ISZERO DUP1 ISZERO PUSH2 0x493 JUMPI RETURNDATASIZE PUSH1 0x0 DUP1 RETURNDATACOPY RETURNDATASIZE PUSH1 0x0 REVERT JUMPDEST POP POP POP POP PUSH1 0x40 MLOAD RETURNDATASIZE PUSH1 0x1F NOT PUSH1 0x1F DUP3 ADD AND DUP3 ADD DUP1 PUSH1 0x40 MSTORE POP DUP2 ADD SWAP1 PUSH2 0x4B7 SWAP2 SWAP1 PUSH2 0x9B5 JUMP JUMPDEST LT ISZERO PUSH2 0x4D5 JUMPI PUSH1 0x40 MLOAD PUSH3 0x461BCD PUSH1 0xE5 SHL DUP2 MSTORE PUSH1 0x4 ADD PUSH2 0x1E0 SWAP1 PUSH2 0xB55 JUMP JUMPDEST PUSH1 0x3 SLOAD CALLER PUSH1 0x0 SWAP1 DUP2 MSTORE PUSH1 0x4 PUSH1 0x20 SWAP1 DUP2 MSTORE PUSH1 0x40 DUP1 DUP4 KECCAK256 PUSH20 0xFFFFFFFFFFFFFFFFFFFFFFFFFFFFFFFFFFFFFFFF DUP8 AND DUP5 MSTORE SWAP1 SWAP2 MSTORE SWAP1 KECCAK256 SLOAD PUSH2 0x513 SWAP2 SWAP1 PUSH2 0xB94 JUMP JUMPDEST TIMESTAMP LT ISZERO PUSH2 0x532 JUMPI PUSH1 0x40 MLOAD PUSH3 0x461BCD PUSH1 0xE5 SHL DUP2 MSTORE PUSH1 0x4 ADD PUSH2 0x1E0 SWAP1 PUSH2 0xC01 JUMP JUMPDEST CALLER PUSH1 0x0 DUP2 DUP2 MSTORE PUSH1 0x4 PUSH1 0x20 DUP2 DUP2 MSTORE PUSH1 0x40 DUP1 DUP5 KECCAK256 PUSH20 0xFFFFFFFFFFFFFFFFFFFFFFFFFFFFFFFFFFFFFFFF DUP9 DUP2 AND DUP7 MSTORE SWAP3 MSTORE SWAP3 DUP4 SWAP1 KECCAK256 TIMESTAMP SWAP1 SSTORE PUSH1 0x2 SLOAD SWAP3 MLOAD PUSH32 0xA9059CBB00000000000000000000000000000000000000000000000000000000 DUP2 MSTORE SWAP1 DUP6 AND SWAP4 PUSH4 0xA9059CBB SWAP4 PUSH2 0x5A7 SWAP4 SWAP2 SWAP3 SWAP1 SWAP2 ADD PUSH2 0xA1A JUMP JUMPDEST PUSH1 0x20 PUSH1 0x40 MLOAD DUP1 DUP4 SUB DUP2 PUSH1 0x0 DUP8 GAS CALL ISZERO DUP1 ISZERO PUSH2 0x5C6 JUMPI RETURNDATASIZE PUSH1 0x0 DUP1 RETURNDATACOPY RETURNDATASIZE PUSH1 0x0 REVERT JUMPDEST POP POP POP POP PUSH1 0x40 MLOAD RETURNDATASIZE PUSH1 0x1F NOT PUSH1 0x1F DUP3 ADD AND DUP3 ADD DUP1 PUSH1 0x40 MSTORE POP DUP2 ADD SWAP1 PUSH2 0x5EA SWAP2 SWAP1 PUSH2 0xA4F JUMP JUMPDEST PUSH2 0x606 JUMPI PUSH1 0x40 MLOAD PUSH3 0x461BCD PUSH1 0xE5 SHL DUP2 MSTORE PUSH1 0x4 ADD PUSH2 0x1E0 SWAP1 PUSH2 0xAA4 JUMP JUMPDEST CALLER PUSH20 0xFFFFFFFFFFFFFFFFFFFFFFFFFFFFFFFFFFFFFFFF AND DUP3 PUSH20 0xFFFFFFFFFFFFFFFFFFFFFFFFFFFFFFFFFFFFFFFF AND PUSH32 0xD60EAF72F2254C41A9480655C261E7857FB1ADF8D4ED7EAE34728D95B1275EAA PUSH1 0x2 SLOAD PUSH1 0x40 MLOAD PUSH2 0x665 SWAP2 SWAP1 PUSH2 0x7EC JUMP JUMPDEST PUSH1 0x40 MLOAD DUP1 SWAP2 SUB SWAP1 LOG3 POP PUSH2 0x677 PUSH1 0x1 DUP1 SSTORE JUMP JUMPDEST POP JUMP JUMPDEST PUSH2 0x682 PUSH2 0x70F JUMP JUMPDEST PUSH2 0x68C PUSH1 0x0 PUSH2 0x76F JUMP JUMPDEST JUMP JUMPDEST PUSH2 0x696 PUSH2 0x70F JUMP JUMPDEST PUSH1 0x3 DUP2 SWAP1 SSTORE PUSH1 0x40 MLOAD PUSH32 0x3B897FD6944545FCB6A5D5B058781D763169157F8559CA1A7F3276B981D09971 SWAP1 PUSH2 0x3D8 SWAP1 DUP4 SWAP1 PUSH2 0x7EC JUMP JUMPDEST PUSH2 0x6D3 PUSH2 0x70F JUMP JUMPDEST PUSH20 0xFFFFFFFFFFFFFFFFFFFFFFFFFFFFFFFFFFFFFFFF DUP2 AND PUSH2 0x706 JUMPI PUSH1 0x40 MLOAD PUSH3 0x461BCD PUSH1 0xE5 SHL DUP2 MSTORE PUSH1 0x4 ADD PUSH2 0x1E0 SWAP1 PUSH2 0xC6B JUMP JUMPDEST PUSH2 0x677 DUP2 PUSH2 0x76F JUMP JUMPDEST PUSH1 0x0 SLOAD PUSH20 0xFFFFFFFFFFFFFFFFFFFFFFFFFFFFFFFFFFFFFFFF AND CALLER EQ PUSH2 0x68C JUMPI PUSH1 0x40 MLOAD PUSH3 0x461BCD PUSH1 0xE5 SHL DUP2 MSTORE PUSH1 0x4 ADD PUSH2 0x1E0 SWAP1 PUSH2 0xCAD JUMP JUMPDEST PUSH1 0x2 PUSH1 0x1 SLOAD SUB PUSH2 0x768 JUMPI PUSH1 0x40 MLOAD PUSH3 0x461BCD PUSH1 0xE5 SHL DUP2 MSTORE PUSH1 0x4 ADD PUSH2 0x1E0 SWAP1 PUSH2 0xCF1 JUMP JUMPDEST PUSH1 0x2 PUSH1 0x1 SSTORE JUMP JUMPDEST PUSH1 0x0 DUP1 SLOAD PUSH20 0xFFFFFFFFFFFFFFFFFFFFFFFFFFFFFFFFFFFFFFFF DUP4 DUP2 AND PUSH32 0xFFFFFFFFFFFFFFFFFFFFFFFF0000000000000000000000000000000000000000 DUP4 AND DUP2 OR DUP5 SSTORE PUSH1 0x40 MLOAD SWAP2 SWAP1 SWAP3 AND SWAP3 DUP4 SWAP2 PUSH32 0x8BE0079C531659141344CD1FD0A4F28419497F9722A3DAAFE3B4186F6B6457E0 SWAP2 SWAP1 LOG3 POP POP JUMP JUMPDEST DUP1 JUMPDEST DUP3 MSTORE POP POP JUMP JUMPDEST PUSH1 0x20 DUP2 ADD PUSH2 0x7FA DUP3 DUP5 PUSH2 0x7E4 JUMP JUMPDEST SWAP3 SWAP2 POP POP JUMP JUMPDEST PUSH1 0x0 PUSH20 0xFFFFFFFFFFFFFFFFFFFFFFFFFFFFFFFFFFFFFFFF DUP3 AND PUSH2 0x7FA JUMP JUMPDEST PUSH2 0x827 DUP2 PUSH2 0x800 JUMP JUMPDEST DUP2 EQ PUSH2 0x677 JUMPI PUSH1 0x0 DUP1 REVERT JUMPDEST DUP1 CALLDATALOAD PUSH2 0x7FA DUP2 PUSH2 0x81E JUMP JUMPDEST DUP1 PUSH2 0x827 JUMP JUMPDEST DUP1 CALLDATALOAD PUSH2 0x7FA DUP2 PUSH2 0x83D JUMP JUMPDEST PUSH1 0x0 DUP1 PUSH1 0x40 DUP4 DUP6 SUB SLT ISZERO PUSH2 0x864 JUMPI PUSH2 0x864 PUSH1 0x0 DUP1 REVERT JUMPDEST PUSH1 0x0 PUSH2 0x870 DUP6 DUP6 PUSH2 0x832 JUMP JUMPDEST SWAP3 POP POP PUSH1 0x20 PUSH2 0x881 DUP6 DUP3 DUP7 ADD PUSH2 0x843 JUMP JUMPDEST SWAP2 POP POP SWAP3 POP SWAP3 SWAP1 POP JUMP JUMPDEST PUSH1 0x0 PUSH1 0x20 DUP3 DUP5 SUB SLT ISZERO PUSH2 0x8A0 JUMPI PUSH2 0x8A0 PUSH1 0x0 DUP1 REVERT JUMPDEST PUSH1 0x0 PUSH2 0x8AC DUP5 DUP5 PUSH2 0x843 JUMP JUMPDEST SWAP5 SWAP4 POP POP POP POP JUMP JUMPDEST PUSH1 0x0 PUSH1 0x20 DUP3 DUP5 SUB SLT ISZERO PUSH2 0x8C9 JUMPI PUSH2 0x8C9 PUSH1 0x0 DUP1 REVERT JUMPDEST PUSH1 0x0 PUSH2 0x8AC DUP5 DUP5 PUSH2 0x832 JUMP JUMPDEST PUSH2 0x7E6 DUP2 PUSH2 0x800 JUMP JUMPDEST PUSH1 0x20 DUP2 ADD PUSH2 0x7FA DUP3 DUP5 PUSH2 0x8D5 JUMP JUMPDEST PUSH1 0x0 DUP1 PUSH1 0x40 DUP4 DUP6 SUB SLT ISZERO PUSH2 0x902 JUMPI PUSH2 0x902 PUSH1 0x0 DUP1 REVERT JUMPDEST PUSH1 0x0 PUSH2 0x90E DUP6 DUP6 PUSH2 0x832 JUMP JUMPDEST SWAP3 POP POP PUSH1 0x20 PUSH2 0x881 DUP6 DUP3 DUP7 ADD PUSH2 0x832 JUMP JUMPDEST PUSH1 0x15 DUP2 MSTORE PUSH1 0x0 PUSH1 0x20 DUP3 ADD PUSH32 0x496E76616C696420746F6B656E20616464726573730000000000000000000000 DUP2 MSTORE SWAP2 POP JUMPDEST POP PUSH1 0x20 ADD SWAP1 JUMP JUMPDEST PUSH1 0x20 DUP1 DUP3 MSTORE DUP2 ADD PUSH2 0x7FA DUP2 PUSH2 0x91F JUMP JUMPDEST PUSH1 0x1D DUP2 MSTORE PUSH1 0x0 PUSH1 0x20 DUP3 ADD PUSH32 0x416D6F756E74206D7573742062652067726561746572207468616E2030000000 DUP2 MSTORE SWAP2 POP PUSH2 0x94F JUMP JUMPDEST PUSH1 0x20 DUP1 DUP3 MSTORE DUP2 ADD PUSH2 0x7FA DUP2 PUSH2 0x966 JUMP JUMPDEST DUP1 MLOAD PUSH2 0x7FA DUP2 PUSH2 0x83D JUMP JUMPDEST PUSH1 0x0 PUSH1 0x20 DUP3 DUP5 SUB SLT ISZERO PUSH2 0x9CA JUMPI PUSH2 0x9CA PUSH1 0x0 DUP1 REVERT JUMPDEST PUSH1 0x0 PUSH2 0x8AC DUP5 DUP5 PUSH2 0x9AA JUMP JUMPDEST PUSH1 0x14 DUP2 MSTORE PUSH1 0x0 PUSH1 0x20 DUP3 ADD PUSH32 0x496E73756666696369656E742062616C616E6365000000000000000000000000 DUP2 MSTORE SWAP2 POP PUSH2 0x94F JUMP JUMPDEST PUSH1 0x20 DUP1 DUP3 MSTORE DUP2 ADD PUSH2 0x7FA DUP2 PUSH2 0x9D6 JUMP JUMPDEST PUSH1 0x40 DUP2 ADD PUSH2 0xA28 DUP3 DUP6 PUSH2 0x8D5 JUMP JUMPDEST PUSH2 0xA35 PUSH1 0x20 DUP4 ADD DUP5 PUSH2 0x7E4 JUMP JUMPDEST SWAP4 SWAP3 POP POP POP JUMP JUMPDEST DUP1 ISZERO ISZERO PUSH2 0x827 JUMP JUMPDEST DUP1 MLOAD PUSH2 0x7FA DUP2 PUSH2 0xA3C JUMP JUMPDEST PUSH1 0x0 PUSH1 0x20 DUP3 DUP5 SUB SLT ISZERO PUSH2 0xA64 JUMPI PUSH2 0xA64 PUSH1 0x0 DUP1 REVERT JUMPDEST PUSH1 0x0 PUSH2 0x8AC DUP5 DUP5 PUSH2 0xA44 JUMP JUMPDEST PUSH1 0x15 DUP2 MSTORE PUSH1 0x0 PUSH1 0x20 DUP3 ADD PUSH32 0x546F6B656E207472616E73666572206661696C65640000000000000000000000 DUP2 MSTORE SWAP2 POP PUSH2 0x94F JUMP JUMPDEST PUSH1 0x20 DUP1 DUP3 MSTORE DUP2 ADD PUSH2 0x7FA DUP2 PUSH2 0xA70 JUMP JUMPDEST PUSH1 0x22 DUP2 MSTORE PUSH1 0x0 PUSH1 0x20 DUP3 ADD PUSH32 0x4472697020616D6F756E74206D7573742062652067726561746572207468616E DUP2 MSTORE PUSH32 0x2030000000000000000000000000000000000000000000000000000000000000 PUSH1 0x20 DUP3 ADD MSTORE SWAP2 POP JUMPDEST POP PUSH1 0x40 ADD SWAP1 JUMP JUMPDEST PUSH1 0x20 DUP1 DUP3 MSTORE DUP2 ADD PUSH2 0x7FA DUP2 PUSH2 0xAB4 JUMP JUMPDEST PUSH1 0xF DUP2 MSTORE PUSH1 0x0 PUSH1 0x20 DUP3 ADD PUSH32 0x46617563657420697320656D7074790000000000000000000000000000000000 DUP2 MSTORE SWAP2 POP PUSH2 0x94F JUMP JUMPDEST PUSH1 0x20 DUP1 DUP3 MSTORE DUP2 ADD PUSH2 0x7FA DUP2 PUSH2 0xB21 JUMP JUMPDEST PUSH32 0x4E487B7100000000000000000000000000000000000000000000000000000000 PUSH1 0x0 MSTORE PUSH1 0x11 PUSH1 0x4 MSTORE PUSH1 0x24 PUSH1 0x0 REVERT JUMPDEST DUP1 DUP3 ADD DUP1 DUP3 GT ISZERO PUSH2 0x7FA JUMPI PUSH2 0x7FA PUSH2 0xB65 JUMP JUMPDEST PUSH1 0x2A DUP2 MSTORE PUSH1 0x0 PUSH1 0x20 DUP3 ADD PUSH32 0x506C65617365207761697420666F722074686520636F6F6C646F776E20706572 DUP2 MSTORE PUSH32 0x696F6420746F20656E6400000000000000000000000000000000000000000000 PUSH1 0x20 DUP3 ADD MSTORE SWAP2 POP PUSH2 0xB0A JUMP JUMPDEST PUSH1 0x20 DUP1 DUP3 MSTORE DUP2 ADD PUSH2 0x7FA DUP2 PUSH2 0xBA7 JUMP JUMPDEST PUSH1 0x26 DUP2 MSTORE PUSH1 0x0 PUSH1 0x20 DUP3 ADD PUSH32 0x4F776E61626C653A206E6577206F776E657220697320746865207A65726F2061 DUP2 MSTORE PUSH32 0x6464726573730000000000000000000000000000000000000000000000000000 PUSH1 0x20 DUP3 ADD MSTORE SWAP2 POP PUSH2 0xB0A JUMP JUMPDEST PUSH1 0x20 DUP1 DUP3 MSTORE DUP2 ADD PUSH2 0x7FA DUP2 PUSH2 0xC11 JUMP JUMPDEST PUSH1 0x20 DUP1 DUP3 MSTORE PUSH32 0x4F776E61626C653A2063616C6C6572206973206E6F7420746865206F776E6572 SWAP2 ADD SWAP1 DUP2 MSTORE PUSH1 0x0 PUSH2 0x94F JUMP JUMPDEST PUSH1 0x20 DUP1 DUP3 MSTORE DUP2 ADD PUSH2 0x7FA DUP2 PUSH2 0xC7B JUMP JUMPDEST PUSH1 0x1F DUP2 MSTORE PUSH1 0x0 PUSH1 0x20 DUP3 ADD PUSH32 0x5265656E7472616E637947756172643A207265656E7472616E742063616C6C00 DUP2 MSTORE SWAP2 POP PUSH2 0x94F JUMP JUMPDEST PUSH1 0x20 DUP1 DUP3 MSTORE DUP2 ADD PUSH2 0x7FA DUP2 PUSH2 0xCBD JUMP INVALID LOG2 PUSH5 0x6970667358 0x22 SLT KECCAK256 EXP PUSH2 0x47FA SHL PUSH27 0xA347E89C8A49ED44D4457E498110E7ECFB148E4161DD3D1B55D164 PUSH20 0x6F6C634300081200330000000000000000000000 "},"methodIdentifiers":{"cooldownPeriod()":"04646a49","dripAmount()":"35a1529b","lastRequestTime(address,address)":"f73eb2e0","owner()":"8da5cb5b","renounceOwnership()":"715018a6","requestTokens(address)":"580f3904","setCooldownPeriod(uint256)":"80ea3de1","setDripAmount(uint256)":"543f8c58","transferOwnership(address)":"f2fde38b","withdrawTokens(address,uint256)":"06b091f9"}}}}}